:020000040800F2
:10000000F87800203D9E00082563000899DD00086F
:1000100027630008296300082B6300080000000024
:100020000000000000000000000000002D63000838
:100030002F630008000000001FDD0008473E000895
:10004000579E0008579E0008579E0008579E0008BC
:10005000579E0008579E0008579E0008579E0008AC
:10006000579E0008579E0008579E0008579E00089C
:10007000579E0008579E0008579E0008579E00088C
:10008000579E0008579E0008579E0008579E00087C
:10009000579E0008579E0008579E0008579E00086C
:1000A000579E0008579E0008579E0008579E00085C
:1000B000579E0008579E0008579E0008579E00084C
:1000C000579E0008579E0008579E0008579E00083C
:1000D000579E000831630008456300085963000813
:1000E000579E0008579E0008579E00080000000019
:1000F0000000000000000000000000000000000000
:100100000000000000000000579E0008579E0008F5
:10011000579E0008579E0008579E0008579E0008EB
:10012000579E0008579E0008579E0008579E0008DB
:10013000579E0008D55E0008579E0008579E00088D
:10014000579E0008579E0008579E0008579E0008BB
:1001500000F002F800F0BAF80AA090E8000C82441F
:100160008344AAF10107DA4501D100F0AFF8AFF2FC
:10017000090EBAE80F0013F0010F18BFFB1A43F085
:100180000103184724BC020044BC02000A444FF09B
:10019000000C10F8013B13F0070408BF10F8014BE6
:1001A0001D1108BF10F8015B641E05D010F8016B2B
:1001B000641E01F8016BF9D113F0080F1EBF10F88F
:1001C000014BAD1C0C1B09D16D1E58BF01F801CBB2
:1001D000FAD505E014F8016B01F8016B6D1EF9D535
:1001E0009142D6D37047000000230024002500264A
:1001F000103A28BF78C1FBD8520728BF30C148BF8A
:100200000B6070476E2924F01582702924F06A82F1
:10021000662928F0DA86652928F0D786672928F02C
:10022000D4866129AFF3008003681B0A28BF41F020
:100230008001692924F0C281642924F0BF817529D5
:1002400024F0BC816F2925F00F83782924F03682B1
:10025000E92925F0A782E42925F0A482F52925F0D3
:10026000A182EF2925F00C83F82924F03582036858
:10027000DB0928BF41F08001632925F0168273292C
:1002800025F01B82E32925F00786F32925F00C864B
:10029000002070471FB528F08CFE9DE8030024F075
:1002A00017FF25F043FD04000020002127F06CFE1D
:1002B000401C60600020002127F07CFEE06025F0FB
:1002C00073FC1FBD10B525F0D8FC10BD26F0C5FA93
:1002D0001146FFF7DFFF00F044F826F0EBFB03B414
:1002E000FFF7F0FF03BC00F096F8000005460C464F
:1002F0001FA00BF0D3FD294627A00BF0CFFD214610
:100300002AA00BF0CBFDFEE72DA00BF0C7FDBFF33D
:100310004F8F32480168324A01F4E06141EA02013C
:100320000160BFF34F8FFEE710B503F095FD0BF0B2
:10033000D2FD09F0A3FD0CF080FC0DF0ADFB2949C6
:1003400029480BF0FAFE0CF0DEFD09F016FE01F074
:10035000F9FC0DF0A2FB09F0CAFFBDE810400CF05B
:10036000E8BD10B50DF0C4FCFFF7DEFF002010BDA6
:100370000A0D2057726F6E6720706172616D65742F
:1003800065722076616C756520646574656374655B
:1003900064206F6E0D0A000020202020202020669F
:1003A000696C65202025730D0A00000020202020A4
:1003B0002020206C696E65202025640D0A00000055
:1003C0000A21212121204552524F522C43505520C1
:1003D000524553455420212121210A000CED00E013
:1003E0000400FA0500000120F87800204FF4807026
:1003F000704700207047002070470020704770470A
:10040000012070474FF0FF307047002070470020F8
:10041000704700207047FEE710B545F2555006F0D2
:10042000DDFD062006F0E8FD4FF47F6006F0FAFDE2
:1004300006F004FEBDE8104006F005BE06F0FEBD65
:100440002DE9F04106460D46012000EB45008107ED
:1004500004D000F00301C1F10401084401210CF0B3
:1004600080F9070001D000240CE0FAA00BF016FD83
:100470000020BDE8F081325D07EB4400FCA124F0D0
:1004800019F8641CAC42F6D33846F2E72DE9FC417A
:10049000002706460C461546B84615E06078E8B1D8
:1004A000CDF8008020788DF8000060788DF801008C
:1004B00001AAF1A1684624F0E7F901280ED10198BC
:1004C000A41C06F8010B6D1E207810B1002DE5D19B
:1004D00004E01DB910F0FF0F00D101273846BDE838
:1004E000FC8170B514461D4623F00CFD002808D091
:1004F000016939B12A462046FFF7C8FF002800D01D
:10050000012070BD002070BD70B50C46054624F07A
:1005100052FC0646204624F04EFC68B13044401C94
:10052000810704D000F00301C1F1040108440BF07D
:1005300051FE060002D004E0284670BDCFA00BF0AB
:10054000ADFC23462A46D6A1304623F0B3FF284609
:100550000BF01FFF304670BD2DE9F041ADF6180DD0
:1005600006460F4690461D461EF0C8FD04002CD0DE
:10057000424639461EF087FECBA2CCA120461EF093
:1005800031FECCA2D0A120461EF02CFE284624F03D
:1005900012FC0246D0A10DF6080023F08BFF0DF6E9
:1005A0000802CEA120461EF01DFED0A2D9A12046F1
:1005B0001EF0F1FDDCA2E0A120461EF013FE314644
:1005C00020461EF022FF80B903E000200DF6180D32
:1005D0004FE72946D4F8440522F0D5FE28B90DF698
:1005E000040120461EF029FF18B120461EF0C9FD67
:1005F000EBE7DDF80428002A51D0D2F80C040028DB
:100600004DD05168C82904D00832CEA00BF046FC6A
:1006100045E0D84D287828B1D2F8080400E0806879
:100620000028FCD16E4600274FF40068DDF804086E
:10063000D0F80C0422F0A9FC48B1DDF804084246C9
:100640006946D0F80C0422F0C0FC3754EEE7684647
:1006500023F046FA060015D0687820B1304623F022
:100660003AFC0BF096FEC4A1304623F04BFC054645
:10067000C3A1304623F046FC4DB1A8B1C1680229A0
:1006800006D111E0C0A1C9481FF090FD07E018B1E4
:1006900023F021FC0BF07DFE304622F0D4FEDDF885
:1006A000040820F06CFDA0E7DDF8040820F067FDE9
:1006B00020461EF066FD304688E72DE9FE430646DB
:1006C000884691461D4600241EF018FD07002AD0DA
:1006D0004A4641461EF0D7FD73A274A138461EF06B
:1006E00081FD74A278A138461EF07CFD284624F0D6
:1006F00062FB024678A1684623F0DCFE6A4677A1D9
:1007000038461EF06FFD79A282A138461EF043FDE7
:1007100085A289A138461EF065FD314638461EF097
:1007200074FE48B902E00020BDE8FE832946D7F8F0
:10073000440522F028FE18B138461EF022FDF2E7EB
:1007400038461EF01EFD2046EEE72DE9F05F054617
:100750004FF0000A544696A00BF0A0FBA3484FF4BC
:10076000FA7B00F1C00700F1A00800F16009A04881
:1007700012F056FF9FA33A4641464846FFF7ECFE6B
:1007800006469B4812F071FF5EB37BA1304623F012
:10079000B9FB014600246DB161B1C868022809D0D7
:1007A000284601F006FB28B1202105F1C00024F005
:1007B00011FC0124304622F046FE7CB16D48807861
:1007C00060B15DB10020401C8028FCD30020401C9B
:1007D0002028FCD30020401C2028FCD32046BDE864
:1007E000F09F21468FA00BF059FB58460CF05FFF9D
:1007F000022C01DA641CBAE75046F0E72DE9F74312
:10080000081A450000D10125284628F0F7FA0446C9
:100810009DF809009DF8081000EB01209DF80A10D2
:10082000000400EB01209DF80B10084428F0E6FAC4
:10083000214628F0D5F928F0A7F9DFF82082002218
:10084000434627F089FC27F00FFE684C0146E06321
:1008500006E100004661696C656420746F20636185
:100860006C6C6F6320696E2062696E326865780017
:100870002530327800000000257800004661696C60
:10088000656420746F206D616C6C6F6320696E20ED
:100890007265616C6C6F635F7374726361740A007C
:1008A00025732573000000002A2F2A004163636529
:1008B000707400006170706C69636174696F6E2F91
:1008C0006A736F6E00000000436F6E74656E742D66
:1008D000547970650000000025640000436F6E7459
:1008E000656E742D4C656E67746800006C6F6E6782
:1008F000706F6C6C206D6964737461746520726FC5
:100900006C6C6E74696D65207375626D69746F6C63
:1009100064000000582D4D696E696E672D4578742E
:10092000656E73696F6E7300636869706D696E657B
:100930007220302E302E3100557365722D4167655F
:100940006E740000485454502053746174757320C1
:100950004E6F7420323030204F4B2C20446973632B
:10096000617264207468697320726573706F6E734E
:10097000650A000000000020726573756C74000049
:100980006572726F72000000526573204A534F4EB9
:10099000206465636F6465206661696C656420210D
:1009A000212121212121210A0000000007920208B3
:1009B0000A203D3D3D3D3D3D3D3D3D3D3D3D3D20D4
:1009C00047455420555053545245414D20574F529E
:1009D0004B205354415254203D3D3D3D3D3D3D3D16
:1009E0003D3D3D3D3D3D3D3D3D200A00581F002021
:1009F000A02000207B226D6574686F64223A20225B
:100A0000676574776F726B222C2022706172616D42
:100A100073223A205B5D2C20226964223A317D0AE0
:100A2000000000006765745F757073747265616DB6
:100A30005F776F726B206A736F6E5F7270635F6354
:100A4000616C6C206661696C65642C2072657472DF
:100A5000792025642074696D65730A0000408F4019
:100A6000F8A00BF01BFA9DF809009DF8081000EBA8
:100A700001209DF80A10000400EB01219DF80B00F5
:100A80000844A061D4E90823801843F10001C4E9B7
:100A9000080107460E46D4E90A10491940F1000042
:100AA000C4E90A10084628F0A9F905463846314637
:100AB00028F073F9294628F093F828F065F8002209
:100AC000434627F049FB27F0CFFC20600346F90F8F
:100AD00041EA4601E0A0226A0BF0E0F924E62DE9A4
:100AE000F14309F0CCF9E74C07466063206B381AF4
:100AF000400028F083F906469DF801009DF800109B
:100B000000EB01209DF80210000400EB01209DF88D
:100B100003104518284628F071F9314628F060F88E
:100B200028F032F8DFF860830022434627F014FBF8
:100B300027F09AFCA561E063D4E90802281842F185
:100B40000001C4E908010646A06B0D46381A4000B2
:100B500028F054F907463046294628F01EF9394650
:100B600028F03EF828F010F80022434627F0F4FA67
:100B700027F07AFC20600346F10F41EA4501B6A058
:100B8000226A0BF08BF9BDE8F8832DE9F0410446A9
:100B900000F14C060025BDA00BF080F9D4F8E01060
:100BA000CAA031600BF07AF980212046FFF748FC9B
:100BB0000646CCA00AF09EFF3146FFF7A5FCD2A165
:100BC000FFF7A2FCC6A1FFF79FFC0746D24812F030
:100BD00027FDD14A3B46883AA2F12001A1F140000D
:100BE000FFF76BFD0446CC4812F03FFD3846DCB100
:100BF0000BF0CFFBAFF28021204623F083F910B138
:100C0000C068012813D0C5A1204623F07BF923F04A
:100C100062F908B10BF0BDFB204622F014FC30460F
:100C20000BF0B7FB284624E40BF0B3FBF7E70125F4
:100C3000F2E72DE9F0410024DFF8F08206461F4676
:100C40000425042332460021D8F8180009F034FAAC
:100C5000A84201D300200CE410B106442D1AF0E79D
:100C6000641CBC4201D3022003E401200CF01FFDF0
:100C700006F0E4F9E5E710B5B6B08422AC49684661
:100C800024F054F9ABA0D0E9001280683191CDE98D
:100C90003220ABA009F022F9A44C0028A06104D0B6
:100CA000032109F0AEF910B1002036B010BD40228A
:100CB000694621A8FFF7EAFB402321AA0021A06989
:100CC00009F01EFA0020349002464FF47A7334A8DB
:100CD000A169FFF7AEFFA06909F0D0F9042134A89B
:100CE000FFF7AEFB0446082231A924F083F840B197
:100CF00031AA214694A00BF0D1F820460BF049FB15
:100D0000D2E721469CA00BF0C9F820460BF041FB2E
:100D10000120CAE71CB580236A46002109F0CCF9FE
:100D20001CBD38B501208DF8020010208DF803009D
:100D30009B4D04240121402006F032F8ADF800401C
:100D40002146284607F0DAFA6946284607F05EF998
:100D500038BD38B501208DF8020010208DF8030051
:100D60008F4D04240121402006F01AF8ADF8004010
:100D70002146284607F016FB6946284607F046F943
:100D800038BD012800D0E4E7CBE72DE9F84301277F
:100D900081468DF80270102604258DF80360814C81
:100DA000A8463946202005F0FBFF6048ADF800500A
:100DB000203000EB09154146287A0028204632D021
:100DC00007F09CFA2046694607F020F98DF802707A
:100DD0008DF803604FF008080121202005F0E0FFA6
:100DE000ADF80080687A4146002820461ED007F002
:100DF00085FA2046694607F009F98DF802708DF8EA
:100E000003600121202005F0CBFFADF80060A87A37
:100E10003146002820460CD007F070FA204669467B
:100E200007F0F4F8AFE607F0BDFACBE707F0BAFA3F
:100E3000DFE707F0B7FAF1E710B5FFF78AFFBDE883
:100E400010406EE76E6F772073706565642069737C
:100E50002025644D487A0A00746F74616C206E6FAF
:100E60006E636520697320257825782C20746F7453
:100E7000616C2073706565642069732025644D681A
:100E80007A0A0000581F002000408F400A203D3D94
:100E90003D3D3D3D3D3D3D3D3D3D3D205355424D5C
:100EA000495420555053545245414D20574F524BB1
:100EB000205354415254203D3D3D3D3D3D3D3D3D3F
:100EC0003D3D3D3D3D3D3D3D200A000053555720F1
:100ED000776F726B5F6E6F6E63653A20307825783E
:100EE0000A0000007B226D6574686F64223A20223C
:100EF000676574776F726B222C2022706172616D4E
:100F000073223A205B20220022205D2C202269647B
:100F1000223A317D00000000A020002072656A6541
:100F200063742D726561736F6E0000000000002015
:100F3000189202083030303138376132000000003A
:100F400075617274310000004368697020446574F3
:100F50006563743A2054657374206661696C6564D6
:100F60003A206765742025732C2073686F756C6454
:100F70003A2025730A0000004368697020446574B4
:100F80006563743A20546573742073756363656593
:100F90006465643A20676F742025730A00000000BE
:100FA000001801400014014010B5FFF7D2FE0020E8
:100FB0004FF47A71401C8842FCDBBDE81040B0E67B
:100FC0002DE9F043044691B0F0A00AF067FFAFF2BC
:100FD000900008F083FFF74D0028A86165D0032139
:100FE00009F00FF800286BD14021684623F0F2FF8A
:100FF000202204F18001684623F098FF04F14000AC
:101000000DAB07C807C32021684600F019FF0C216B
:101010000DA800F015FF40236A460021A86909F0D9
:101020006FF8402803D0A86909F028F848E0E8786C
:1010300028B140216846FFF703FA0BF0AAF9DE4811
:1010400000271097D0F8C80027F0D8FEDB4927F01A
:10105000C7FDDB4927F0E6FE27F084FE064608F0D0
:101060000EFF81463346002210A8A969FFF7E1FD73
:10107000064608F004FF8046FFF7DEFEA8EB0901F4
:10108000D0A00AF00BFF701C12D0022E10D01098C6
:1010900000F083FE0246C4F8E00041464846FFF7F0
:1010A000ADFBA86908F0EAFF012011B0BDE8F083AC
:1010B000C4F8E070A86908F0E1FFC9A00AF0EEFEEC
:1010C0000020F2E71CB5CDA00AF0E8FE08F0D7FE3C
:1010D000B94EB84DD0364FF0FF3730633A4601A9CC
:1010E000686909F0F5FF0028F8D105F0A7FF08F0BE
:1010F000C6FE044601E005F0A1FF0198FFF725FBBD
:101100000128F8D108F0BBFE011BC8A00AF0C6FEFA
:1011100070686A46401C7060022168690AF08EF8A7
:10112000BDF80010C6A00AF0B9FE6A46022128697F
:101130000AF084F8BDF80010C7A00AF0AFFE6A46B6
:101140000221E8680AF07AF8BDF80010C7A00AF09A
:10115000A5FE3A460199286909F0FAFEBEE708B5EE
:10116000C8A00AF09BFE934C4FF0FF352A46694613
:10117000206909F0ADFF0028F8D10098FFF720FFA3
:10118000009901282A4603D0606909F0E1FEEDE7E5
:10119000E068FAE708B5C8A00AF080FE854C4FF079
:1011A000FF3632466946E06809F092FF0028F8D120
:1011B00008F065FE05460098FFF7E7FC012808D116
:1011C0007D48D0308268521C82604168C6480AF06F
:1011D00065FE08F054FE411BC4A00AF05FFE3246D3
:1011E0000099606909F0B4FEDBE770B50D4604466E
:1011F000C3A24FF4CA7120F0E4F9BB4920688831DA
:1012000021F038FBA91C206821F034FB2068BDE8E0
:101210007040BEA121F02EBB7CB5044608F02FFE25
:101220006449C969401A4FF4FA71B0FBF1F1C14841
:101230003C25B1FBF0F200FB12114FF46160B1FBF1
:10124000F0F300FB1311B1FBF5F005FB10112CB10D
:10125000CDE90001B8A1204623F02CF900207CBD87
:1012600010B504002AD0BB482060BBA104F14400A3
:1012700023F064FDBFA104F1840023F05FFDC0A151
:1012800004F1A40023F05AFDBFA1201D23F056FD58
:10129000C1A104F1140023F051FDC3A104F1240005
:1012A00023F04CFDC0A104F1340023F047FD0320DE
:1012B00004F8C40F3F482030C06B606010BD10B50B
:1012C0003D4CBCA00AF0EAFDC2A021680AF0E6FD90
:1012D00004F14401C4A00AF0E1FD04F18401C6A0B8
:1012E0000AF0DCFD04F1A401C7A00AF0D7FD3149E2
:1012F00014F8C40F203101EB00104168C6A00AF0B9
:10130000CDFDCAA061680AF0C9FDBDE8104028A063
:101310000AF0C4BD70B5284CC9A0D0340AF0BEFD97
:10132000D0A021680AF0BAFDAFF2E840E16B0AF004
:10133000B5FDD1A061680AF0B1FDD5A0A1680AF0A1
:10134000ADFDD9A0E1680AF0A9FDDDA021690AF090
:10135000A5FD04F140000546FFF75EFF2946DFA02A
:101360000AF09CFD04F16001E0A00AF097FD04F191
:10137000A001E3A00AF092FD04F1C001E5A00AF08B
:101380008DFDBDE870400AA00AF088BD0A203D3DF1
:101390003D3D3D3D2043686970205363616E686147
:1013A0007368205354415254203D3D3D3D3D3D3DE9
:1013B0000A00000000000020881E002000007A447F
:1013C0000000FA43436869702047657473207469AC
:1013D0006D6520757365203D2025640A00000000BE
:1013E000436F6D6D732067657473206572726F72E1
:1013F000202121212121210A000000000A203D3D59
:101400003D3D3D3D3D3D3D3D3D3D3D204D494E45F4
:101410005220424547494E203D3D3D3D3D3D3D3DED
:101420003D3D3D3D3D3D3D200A00000047555720D4
:1014300074696D6520757365203D2025640A000080
:1014400046726565206D626F782068617665203D23
:101450002025640A000000004D6964206D626F78E9
:101460002068617665203D2025640A0046756C6C15
:10147000206D626F782068617665203D2025640AC2
:10148000000000000A203D3D3D3D3D3D3D3D3D3DD0
:101490003D3D3D205343414E204841534820424565
:1014A00047494E203D3D3D3D3D3D3D3D3D3D3D3D62
:1014B0003D3D3D200A0000000A203D3D3D3D3D3DB3
:1014C0003D3D3D3D3D3D3D205355424D495420421B
:1014D0004547494E203D3D3D3D3D3D3D3D3D3D3D2A
:1014E0003D3D3D3D200A00009C9202085355572087
:1014F00074696D6520757365203D2025640A0000C0
:101500004E6F7420666F756E640000002063616E1C
:10151000206E6F7420626520666F756E643C2F6468
:1015200069763E3C2F626F64793E3C2F68746D6C27
:101530003E00000080510100253033646461792C45
:1015400025303264682C253032646D2C25303264AD
:101550007300000010A15AA5687474703A2F2F31DF
:1015600039322E3136382E312E3235303A39333346
:10157000320000006C69616E79695F3030360000BE
:1015800031323334353600003139322E3136382E8F
:10159000312E3233360000003235352E3235352EBD
:1015A0003235352E300000003139322E3136382EAA
:1015B000312E31003D3D3D3D3D3D3D2064756D701A
:1015C0005F73657474696E6773203D3D3D3D3D3DBD
:1015D0003D0A00004D6167696320636F6465203ACE
:1015E000307825782C200A00706F6F6C2075726C33
:1015F000203A2573200A000075736572206E616DB4
:1016000065203A2573200A0070617373776F7264E6
:10161000203A2573200A00004368697020636C6FCC
:10162000636B203A2564200A00000000776169742A
:101630002074696D65206D73203A2564200A0000CE
:101640003D3D3D3D3D3D3D2064756D705F73746172
:1016500074697320696E666F203D3D3D3D3D3D3DA3
:101660000A000000746F74616C5F6D6873203A2526
:10167000644D487A2C200A00746F74616C5F676552
:1016800074776F726B73203A25642C200A00000077
:10169000746F74616C5F6163636570746564203A34
:1016A00025642C200A000000746F74616C5F726501
:1016B0006A6563746564203A25642C200A00000082
:1016C000636869705F6465746563745F6572726F87
:1016D00072203A25642C200A0000000075705F74A7
:1016E000696D65203A25732C200A000063757272BB
:1016F000656E745F706F6F6C203A25732C200A0042
:1017000063757272656E745F75736572203A2573C6
:101710002C200A0063757272656E745F706173735A
:10172000203A25732C200A0010B506F02EF9F84C4B
:10173000204606F064F906F034F92168BDE810404F
:10174000F4A00AF0ABBB10B506F01FF9F04C204630
:1017500006F055F906F025F92168BDE81040EDA026
:101760000AF09CBB2DE9F04106F00FF9E84E304637
:1017700006F045F90546042802D00146EAA00CE02F
:10178000F24F002406EB840057F8241006F0DFF92E
:10179000054604280BD00146EDA00AF07FFB06F0B9
:1017A00000F92946BDE8F041F1A00AF077BB641CBE
:1017B000332CE7D3BDE8F04106F0F3B8002804D09D
:1017C0000146E24834301BF0E9BF704770B50C4663
:1017D000154620B10146DD48001D1BF0DFFF24B196
:1017E000DA48214614301BF0D9FF002D06D02946D7
:1017F000BDE87040D54824301BF0D0BF70BDC4494F
:1018000010B5E34A0868904209D1D04A002051F847
:10181000203042F82030401C3328F8D307E0CB4872
:10182000FFF71EFDFFF79EFFDAA00AF037FBBDE8C9
:10183000104044E570B50646DE48846806E0304650
:10184000A568216810F0E0FC20B12C46002CF6D1F0
:10185000002070BD606870BD2DE9F047002782460A
:10186000884691463E463D463C46501C22F093FD3C
:1018700068BB781EBDE8F08718F8051027B1012F66
:101880001AD0022F22D11CE0252902D02B290FD0FB
:101890000FE008EB050101274A78342A16D1897830
:1018A000302913D140260655641C0027AD1C0DE0DD
:1018B00020210155641C09E00E01A6F5407602279F
:1018C00004E00E44373E0655641C00276D1C4D4550
:1018D000D2DB00210155CAF800000846CAE72DE90D
:1018E000F0411446DDE906671D4623F027FA294634
:1018F000204623F023FA39463046BDE8F04123F074
:101900001DBA2DE9F34F914D0C460978CFB0002256
:1019100005F1A40605F5987B05F1440805F1840955
:1019200061B190E04FF480720DA9D4F80C0421F05D
:101930004CFB07460DAA02F807A000E09246D4F837
:101940000C0421F022FB0028ECD139460DA800F050
:1019500083FA99A0FFF76EFF0146281D23F0EEF9E8
:1019600097A0FFF767FF01467848143023F0E6F9A7
:1019700095A0FFF75FFF01467448243023F0DEF99D
:1019800093A0FFF757FF01467048343023F0D6F993
:1019900091A0FFF74FFF0146404623F0CFF990A0FA
:1019A000FFF748FF0146484623F0C8F98EA0FFF72D
:1019B00041FF0146304623F0C1F98DA0FFF73AFF01
:1019C00023F028F8C5F8C8008BA0FFF733FF23F0F9
:1019D00021F8401E072803D3504685F8C4A001E033
:1019E00085F8C4007349C0B2203101EB0010C06813
:1019F000C5F8C8006F4884680AE0A768206822F02C
:101A0000F9FC606822F0F6FC204622F0F3FC3C462C
:101A1000002CF2D1674C57464C48C4F808A0FFF799
:101A20004EFCFFF79FFE01200BF041FEFEF76CFC21
:101A30007348CDE90006A0F120024B4641465846C6
:101A4000FFF74DFF67606FA2C8214F981FF0B9FDE7
:101A50006B4C6D48C03C04F58472C4F8E40004F596
:101A6000947004F1F8018DE8070004F58C73403898
:101A70001F4682461CF098FF42F21070C4F83801ED
:101A800004F140004D90FFF7C7FBC4F83C81C4E966
:101A9000509615F8C40F2146401C6A68CDE90B200A
:101AA000CDE90996D1F83831029C06AA0594A2E83E
:101AB0008801D1F8E420019B01ACCDF800B004937B
:101AC000A4E805040A68514951484D9B22F0F2FCF4
:101AD0004F984F49006820F0CDFE51B0BDE8F08F1F
:101AE00010B5002108461FF0C2FC00280ED149495C
:101AF00049A01FF036FD002808D0484948A01FF033
:101B000039FD20F011F900B18EE090E093E0000083
:101B100000F80308646174612072656164203078A4
:101B20002578210A00000000464C4153485F457269
:101B300061736550616765206572726F72282564F4
:101B4000292021212121200A00000000881E0020D8
:101B5000464C4153482070726F6772616D20657208
:101B6000726F72282564292021212121200A00007A
:101B7000736176655F73657474696E6773206572EF
:101B8000726F72282564292021212121200A00005A
:101B900010A15AA56C6F61642026207361766520C0
:101BA00064656661756C742073657474696E6773BF
:101BB00021200A000000002043524950000000008C
:101BC000434D534B000000004347545700000000B2
:101BD00050444E53000000005055524C000000008D
:101BE000555345520000000050415353000000007F
:101BF0005741544D00000000434C434B000000008F
:101C0000182000204F4B0000D150FD778093020830
:101C100018120020031900082F000000EB11000823
:101C20002F6572726F720000B4A00AF037F9BDE838
:101C3000104020F04EBA10BD2DE9FC414FF4A471C4
:101C4000B44823F0C7F908F01AF9B34DE861FFF77B
:101C5000D6FDB0482C3800F1EC01CDE90010A0F120
:101C6000200300F1CC02A0F160018C30FFF737FEB9
:101C70000021AA4811F09FFC00221021A8A009F021
:101C8000E4F8686100221021A8A009F0DEF82861BC
:101C900000221021A8A009F0D8F80024A94E671E40
:101CA000E86004EB4400C0EB441006EBC0013A4688
:101CB000686909F04DF9641C102CF2DB9548D038A6
:101CC00090F8C400FFF761F8BDE8FC41FFF76CB97C
:101CD00008B502F0E9F810F0C1FD1CF029FC04F091
:101CE000B3FA08F04AF9FFF7A7FF15F046FE10F027
:101CF00041FD95A010F0BAFAFEF78EFB0A204FF4D2
:101D000080630022AFF6A931009091A016F0BBF8D5
:101D1000102003020022AFF6833100908FA016F04E
:101D2000B2F87C4CFEF7A7FF28B108F0A8F8A06332
:101D30008C48FFF7C7F92069401C206101200BF097
:101D4000B6FCEFE77CB588A189A00AF0A7F893A2BA
:101D500095A198A00AF0A2F8142410264FF4E0539D
:101D60000022AFF29301CDE900649FA00BF076FB57
:101D7000330205460022AFF29721CDE900649CA012
:101D80000BF06CFB044615B128460BF007FB14B1B1
:101D900020460BF003FB00207CBDC0F30741090285
:101DA00041EA1061C0F3072242EA002041EA004004
:101DB00070472DE9F041CAB0884605460127024622
:101DC00080238DA140460097FEF78BFB50B1002089
:101DD0000090202305F1800289A14046FEF781FB97
:101DE00010B11AE089A126E03AAE002455F824008B
:101DF000FFF7D3FF46F82400641C102CF6DB68467E
:101E000000F01CF940223AA9684601F02EFF20227A
:101E100002A905F1800023F089F8202305F1A00232
:101E20007EA140460097FEF75CFB18B101204AB046
:101E3000BDE8F0817BA180481EF0B8F90020F6E7EC
:101E400010B5002204E0835C445C84544354521C6B
:101E5000491E8A42F7D310BD2DE9FC4700240546F0
:101E60000E4627464FF0FF393AE0002188462046CB
:101E70000A4605E02B5D04F101043D2B03D0521C02
:101E8000B442F7D171B329186846FFF7E5FC10B1E9
:101E90004846BDE8FC872046002204E0295D26294B
:101EA0000AD0641C521CB442F8D1291801A8FFF7CB
:101EB000D3FC28B100981BE04FF00108641CF4E744
:101EC0000C2022F068FA78B1009901600199416014
:101ED000002181607FB1B8600746B8F1000F01D0E2
:101EE000B442C2D10020D4E7009822F083FA0198CE
:101EF00022F080FACCE708498860EDE763616E2044
:101F00006E6F742072756E20687474706420212165
:101F100021200A00581F002000000020A0200020DF
:101F2000776F726B715F667265650000776F726BB9
:101F3000715F6D6964000000776F726B715F667529
:101F40006C6C000098030020756172743200000010
:101F50007363616E68617368000000007375626D81
:101F600069740000A0860100312E312E300000007F
:101F70000A0A2A2A2A2A2A2A2A2A2A204D494E458A
:101F8000522053572056657273696F6E3A2025733D
:101F9000202A2A2A2A2A2A2A2A2A0A0032323A32CD
:101FA000383A3238000000004F637420323020325B
:101FB000303133000A2A2A2A2A2A2A2A2A2A204D9C
:101FC000494E4552205357204275696C642054692C
:101FD0006D653A202573202573202A2A2A2A2A2A69
:101FE0002A2A2A0A0A0000006D696E657200000044
:101FF00077656273727600006461746100000000AE
:102000006D69647374617465000000004A534F4E3B
:1020100020696E76616C206461746100746172671E
:10202000657400004A534F4E20696E76616C2074CF
:102030006172676574000000F89102080021016078
:102040004160FE498160FE49C160FE490161FE496F
:102050004161FE498161FE49C161FE490162FE495B
:10206000416270472DE9F04F0A68ABB012BA22F016
:10207000FF04CA78144316944A6812BA22F0FF0487
:10208000CA7914431E948A6812BA22F0FF03CA7AEE
:1020900013432793CA68CB7B12BA22F0FF021A437C
:1020A00018920A69CB7C12BA22F0FF021A430F92EF
:1020B0004A69CB7D12BA22F0FF021A4312928A6952
:1020C000CB7E12BA22F0FF021A431192CA6912BAE9
:1020D00022F0FF05CA7F15431B950A6A91F8233049
:1020E00012BA22F0FF021A430D924A6A91F8273081
:1020F00012BA22F0FF021A4303928A6A91F82B3037
:1021000012BA22F0FF021A431D92CA6A91F82F30C8
:1021100012BA22F0FF021A4326920A6B91F833306A
:1021200012BA22F0FF021A430B924A6B91F8373031
:1021300012BA22F0FF021A4323928A6B91F83B30C5
:1021400012BA22F0FF0242EA030BCA6B91F83F1069
:1021500012BA22F0FF0242EA010E81681391D0F810
:102160000C90CDF88090066914960096D0F81480F3
:10217000CDF8908084692594C2692892036A4FEA59
:10218000B41585EAF42585EA7467299382EA030584
:10219000466A2540A2462A96169C5D403D4434443A
:1021A0002C44AE4D009E04EB050C4FEAB10484EACA
:1021B000713484EAB15741EA090501EA090435405E
:1021C0002C4308EB0C053C44A4444FEAB51484EAC4
:1021D000F52484EA75668AEA02042C40544001958D
:1021E00035191E9C23449E4C2B441F194FEABC03F7
:1021F0004CEA010883EA7C330CEA010608EA090884
:1022000083EABC5346EA08063344009E019D3E44DF
:102210001F444FEAB61385EA0A0583EAF6233540E0
:1022200083EA766385EA0A055C19279B00961A44BF
:1022300022448C4B47EA0C041A444FEAB70383EA62
:10224000773383EAB75507EA0C030C4023432B444A
:1022500009EB020502EB03084FEAB51282EAF52208
:1022600082EA75620295019D4FEAB8046E40029DB4
:1022700084EA78342E40019D6E409319189A84EABE
:10228000B85552441A44784B48EA0704134408EA04
:10229000070204EA0C0422432A4401EB030A009ECD
:1022A000029D9C184FEABA11754081EAFA2105EAAD
:1022B0000A0581EA7A6175402944019D0F9A2A44F2
:1022C00011446A4A44EA080311444FEAB40282EA1C
:1022D000743204EA08053B4082EAB4561D43721981
:1022E0000CEB01058B184FEAB51181EAF52181EA63
:1022F00075610595029D129A8AEA0506059D2E4094
:10230000029D6E403144009E03EA040532441144AC
:10231000574A43EA040601EB020C4FEAB30181EA93
:10232000733106EA080681EAB3513543294407EBC5
:102330000C09059D4FEAB91285EA0A0582EAF922DD
:1023400005EA090582EA796285EA0A055619029DBD
:10235000119A61442A44474D324457194FEAB10259
:1023600082EA713282EAB15641EA030501EA0302C8
:1023700025402A43B51808EB070C7A194FEABC151B
:1023800085EAFC2585EA7C67059D89EA050606EA5B
:102390000C066E401B9D37445544374E3D4405EBBB
:1023A00006084FEAB20585EA723585EAB25742EA75
:1023B000010602EA01051E4035437E1904EB080AB6
:1023C00008EB06044FEABA1686EAFA2686EA7A6726
:1023D0008CEA090606EA0A0686EA090637440D9ED3
:1023E000059D35443D44254E44EA020705EB0608A9
:1023F0004FEAB40585EA743585EAB45604EA020565
:102400000F403D43354403EB080608EB05034FEA54
:10241000B61585EAF62585EA76678AEA0C05354021
:10242000019685EA0C05039E2F4406EB0905144E20
:102430003D4405EB06084FEAB30523E067E6096A69
:1024400085AE67BB72F36E3C3AF54FA57F520E51D5
:102450008C68059BABD9831F19CDE05B982F8A420E
:1024600091443771CFFBC0B5A5DBB5E95BC25639E6
:10247000F111F159A4823F92D55E1CAB98AA07D8FE
:10248000015B831285EA733585EAB35743EA040595
:1024900003EA040615402E433E4401EB080908EB0D
:1024A00006014FEAB91686EAF92686EA7967019E9F
:1024B0001D9D86EA0A0606EA090686EA0A063E44E1
:1024C00065443544FE4E01EA030835444FEAB1063F
:1024D00086EA713686EAB15741EA0306264048EAA1
:1024E000060856194FEAB61282EAF62282EA7662A6
:1024F00002964744019E2F4489EA0605029E354014
:10250000019E75405619269AEE4D5244324402EB14
:10251000050C4FEAB70247EA010582EA773207EA7B
:1025200001061D4082EAB7522E43324404EB0C0AE6
:10253000029E0CEB02044FEABA1286EA090682EA0E
:10254000FA2206EA0A0682EA7A6286EA09069519FA
:10255000019E0B9A32442A44DB4D02EB050C4FEAF4
:10256000B40282EA743282EAB45244EA070604EA08
:1025700007050E40354303EB0C062A440CEB02031F
:102580004FEAB61282EAF62282EA76620596029E47
:1025900003EA04088AEA0605059E3540029E754056
:1025A0005619239AC94D4A44324456194FEAB30288
:1025B00043EA040982EA733209EA07098D1982EABB
:1025C000B35248EA090842443244059E4FEAB51125
:1025D00086EA0A0681EAF5212E4081EA75610495B2
:1025E00086EA0A068D19029E42EA030C0BEB0601ED
:1025F0002944B74D02EA03060D444FEAB20181EACD
:1026000072310CEA040C81EAB25146EA0C063144FC
:102610002F4405EB010CDDE904564FEAB711754074
:1026200081EAF7213D4081EA776175400D440EEB68
:102630000A012944A74D089701EB05084FEABC01A0
:1026400081EA7C3181EABC510CEA02074CEA0209BA
:1026500004EB08051E9C07954FEA7B454FEAF416EC
:1026600085EAFB4586EAB44685EA9B2586EAD404DA
:102670002E19169D039C09EA03092C44079D344436
:102680004FEAB51686EAF52686EA7565059E47EA9D
:10269000090739442E44089F049D1A946F40079DF2
:1026A00041442F40049D41EA0C086F40F5192C4429
:1026B000894D08EA020866194FEAB10484EA7134C8
:1026C00001EA0C0584EAB15445EA08052C449F1937
:1026D0003319279C4FEA7E454FEAF41685EAFE45FA
:1026E00086EAB44685EA9E2586EAD40401972E1927
:1026F000DDE91D452C444FEAB715344485EAF7253A
:1027000085EA7766049D0C942E44DDE907577D40E9
:10271000019F3D40089F7D4035442C446F4D671913
:102720004FEAB30484EA733484EAB35643EA0105FA
:1027300003EA010405EA0C052C43344402EB0709C3
:102740003A191A9C4FEA744585EAF44585EA9425BE
:10275000189C4FEAF41686EAB44686EAD4042E1989
:10276000DDE926452C4434444FEAB91686EAF926B9
:10277000089D86EA796602942E44079F019D7D405C
:1027800005EA09057D4035442C44554D42EA0306CF
:1027900067194FEAB20484EA723484EAB25502EA55
:1027A00003040E4034432C4407EB04080C9C0CEB50
:1027B000070A4FEA744585EAF44585EA94250F9C9B
:1027C0004FEAF41686EAB44686EAD4042E19189D18
:1027D0000B9C2C4434444FEABA1686EAFA26079D2D
:1027E00086EA7A667719019D1C9489EA050606EA4D
:1027F0000A066E40BD192C443A4D4FEAB8062C44E7
:1028000086EA783686EAB85748EA020608EA0205F8
:102810001E4035433D440E196119029C09964FEA4A
:10282000744585EAF44585EA9425129C4FEAF4162E
:1028300086EAB44686EAD4042E190F9D239C2C44C4
:1028400034441894099E4FEAB61585EAF62585EAC0
:102850007666019D7719099E8AEA0905354085EA61
:1028600009053D442C44204D01EA080766194FEA4A
:10287000B10484EA713484EAB15C41EA080414408A
:1028800027430CEB07049D1933191C9C05954FEA4F
:10289000744585EAF44585EA9425119C4FEAF416BF
:1028A00086EAB44686EAD4042E19129D0BEB050481
:1028B00034440A94059D4FEAB51686EAF52615E0DC
:1028C000BE853124C37D0C55745DBE72FEB1DE80C1
:1028D000A706DC9B74F19BC1C1699BE48647BEEFF0
:1028E000C69DC10FCCA10C246F2CE92D86EA75661C
:1028F00006EB0907099E86EA0A062E4086EA0A06C2
:10290000BD192C44FE4D43EA010604EB050C4FEAC9
:10291000B30484EA733484EAB35703EA010406EA91
:102920000806344302EB0C063C440CEB040204960C
:10293000189C4FEA744585EAF44585EA94251B9C6A
:102940004FEAF41686EAB44686EAD4042E19119D9D
:102950000EEB050434442294049E4FEAB61585EA32
:10296000F62585EA766606EB0A07099E059D754001
:10297000049E3540099E75403D442C44E14D671945
:102980004FEAB20484EA723484EAB25642EA03059A
:1029900002EA03040D402C43344407EB040C0A9C68
:1029A00008EB070A4FEA744585EAF44585EA942561
:1029B0000D9C4FEAF41686EAB44686EAD4042E1932
:1029C000DDE91A542C4434444FEABA1686EAFA2652
:1029D00086EA7A65099E1094AF19DDE904656E40B8
:1029E000059D06EA0A066E40BD192C44C64D4CEA08
:1029F00002082C444FEABC0585EA7C3585EABC57C1
:102A00000CEA020508EA030845EA08053D440E19E8
:102A10006119229C07964FEA744585EAF44585EAD8
:102A20009425039C41EA0C094FEAF41686EAB44661
:102A300086EAD4042E19DDE90C452C443444079E63
:102A40000E944FEAB61585EAF62585EA7666059D69
:102A500009EA02097719049E8AEA0605079E3540AD
:102A6000049E75403D442C44A84D01EA0C066719AC
:102A70004FEAB10484EA713484EAB15446EA0906A3
:102A8000DD1904EB06080195109C47444FEA744396
:102A900083EAF44383EA94241D9B4FEAF31585EA05
:102AA000B34585EAD303E518DDE9024323442B440B
:102AB000019D049E4FEAB51484EAF52484EA756406
:102AC0003444079E199386EA0A062E4086EA0A06CF
:102AD000344423448E4C03EB04084FEAB70383EAE3
:102AE000773383EAB75547EA010407EA010304EAAA
:102AF0000C04234302EB08060E9C2B444FEA74425D
:102B000082EAF44282EA9424269A00964FEAF21569
:102B100085EAB24585EAD202A518DDE91C422244C5
:102B20004FEAB6142A4484EAF62484EA76641592BD
:102B3000079E019D54447540009E43443540079EC6
:102B400075402C442244734C43EA070502EB040809
:102B50004FEAB30282EA733282EAB35403EA07020D
:102B60000D402A4322440CEB080A08EB020C199A88
:102B70004FEA724484EAF24484EA92240B9A4FEAC0
:102B8000F21585EAB24585EAD202A518269C189A64
:102B90002244AC184FEABA1282EAFA2282EA7A6533
:102BA000079A12941544DDE900267240019E02EA5C
:102BB0000A0272402A442244574C4CEA0305161973
:102BC0004FEABC0282EA7C320CEA03043D4001EB8E
:102BD000060982EABC522C43159922444FEA7144FB
:102BE00084EAF14484EA9124239932444FEAF115AE
:102BF00085EAB14585EAD1016518DDE90A14214469
:102C00006C184FEAB91181EAF92181EA79650199D5
:102C10001B942944009D8AEA050606EA09066E40CF
:102C2000314421443D4C02EA0C060D1942EA0C04E1
:102C30004FEAB2011C4081EA7231264381EAB25167
:102C400031447E19129C294405964FEA744585EA61
:102C5000F4454FEAFB1685EA942586EABB4686EAE8
:102C6000DB042E19DDE922452C443444059E1794DB
:102C70004FEAB61585EAF62585EA7666009D77194E
:102C8000059E89EA0A05354085EA0A053D442C443B
:102C9000234D41EA020667194FEAB10484EA713410
:102CA00084EAB15501EA020406EA0C0634432C44D6
:102CB000DD193B191B9C04954FEA744585EAF445E0
:102CC0004FEAFE1685EA942586EABE4686EADE04C9
:102CD0002E19109C5C4434441D94049D4FEAB51693
:102CE00086EAF52686EA756505EB0A07059E049DCA
:102CF00086EA09062E4086EA0906BD192C4411E031
:102D0000AA84744ADCA9B05CDA88F97652513E98FC
:102D10006DC631A8C82703B0C77F59BFF30BE0C603
:102D20004791A7D5FE4D04EB05084FEAB30484EAAA
:102D3000733484EAB35743EA010403EA01051440FB
:102D400025433D440CEB080B08EB050C179C4CEAA3
:102D500003084FEA744585EAF44585EA94251A9CF0
:102D600008EA01084FEAF41686EAB44686EAD40473
:102D70002E190E9D05EB0E0434444FEABB1585EA6F
:102D8000FB2585EA7B6606EB0907DDE904567540FD
:102D9000059E05EA0B05754007943D442C44E14D22
:102DA0000CEA03062C444FEABC0585EA7C3585EA2B
:102DB000BC5746EA0806374402EB040A27441D9C28
:102DC0004FEA744282EAF44282EA94240C9A4FEA6F
:102DD000F21585EAB24585EAD202A518DDE9192483
:102DE0002244AC184FEABA120F9482EAFA22059EE6
:102DF00082EA7A62049D32448BEA050606EA0A06F4
:102E00006E4032442244C84C15194FEAB70247EAD3
:102E10000C0982EA773207EA0C0409EA030982EA1C
:102E2000B75244EA090422444C19019405EB020804
:102E3000079C049D4FEA744181EAF44181EA94229F
:102E4000029948EA07094FEAF11484EAB14484EA96
:102E5000D10154180C9A159908EA07061144214427
:102E6000019C0D914FEAB41282EAF42282EA746264
:102E70002A448AEA0B05254085EA0B052A440A44C0
:102E8000AA4909EA0C090A444FEAB80181EA7831F3
:102E900081EAB85146EA0906314403EB020E0F9C61
:102EA0000A444FEA744181EAF44181EA94231C996F
:102EB0004FEAF11484EAB14484EAD1010B44129C34
:102EC000029921441944019C4FEABE1383EAFE2370
:102ED00084EA0A0483EA7E6304EA0E045B4484EA1B
:102EE0000A04239123441944914BCD184FEAB201AF
:102EF00081EA723181EAB25442EA080302EA080127
:102F00003B40194321446E180CEB05030D990293C5
:102F10004FEA714383EAF14383EA912318994FEA18
:102F2000F11484EAB14484EAD1015C18DDE91B1391
:102F300019440C44029B1F944FEAB31181EAF32118
:102F400081EA736303EB0A05019B8EEA0301029B8E
:102F50001940019B594029442144764B46EA02041A
:102F600001EB030C4FEAB60181EA763106EA02036F
:102F700004EA080481EAB65123431944239B07EB72
:102F80000C054FEA734484EAF34484EA93240A9BD1
:102F900009954FEAF31585EAB34585EAD303E518A9
:102FA000DDE917342344EC18099D11944FEAB51359
:102FB00083EAF52383EA7565019B6144EF18029B60
:102FC000099D83EA0E032B4083EA0E033B4423440E
:102FD000594C1F194FEAB10383EA713383EAB155A3
:102FE00041EA060301EA060413401C432C4407EBA4
:102FF00004091F9C08EB070B4FEA744383EAF44370
:1030000083EA9424229B4FEAF31585EAB34585EAC7
:10301000D303E5180A9C1D9B2344EC184FEABB150B
:1030200085EAFB2585EA7B6505EB0E07099D029B7A
:103030001A945D4005EA0B055D407B1923443F4C23
:1030400009EA010523444FEAB90484EA793484EAA1
:10305000B95749EA0104344025437C19D5181A1997
:10306000119C04954FEA744383EAF44383EA942461
:10307000109B4FEAF31585EAB34585EAD303E518BB
:10308000229C079B2344EC18049D16944FEAB51329
:1030900083EAF52383EA7565029BEF18099D8BEAA5
:1030A0000503049D2B40099D6B403B442344244C65
:1030B00042EA09051C444FEAB20383EA723302EA8A
:1030C000090A0D4083EAB2534AEA050A03EB0A05EE
:1030D00006EB040E04EB050C1A9C4FEA744383EADA
:1030E000F44383EA94240E9B4FEAF31585EAB34533
:1030F00085EAD303E518DDE90F342344EC184FEAE1
:10310000BE1383EAFE23099D83EA7E635F19049D53
:103110001C9485EA0B0505EA0E0585EA0B0511E00E
:103120005163CA0667292914850AB72738211B2E3F
:10313000FC6D2C4D130D385354730A65BB0A6A7627
:103140002EC9C2817B192344FE4C4CEA02051E198C
:103150004FEABC0383EA7C330CEA020405EA090562
:1031600083EABC532C43234401EB0608F118169C58
:1031700041EA0C0A4FEA744383EAF44383EA942455
:10318000199B01EA0C074FEAF31585EAB34585EA76
:10319000D303E518DDE90D342344EC184FEAB813E6
:1031A00083EAF82383EA786505EB0B03049D069414
:1031B0008EEA050606EA08066E4033442344E24CD4
:1031C0000AEA020A1C444FEAB10383EA713383EA34
:1031D000B15347EA0A073B4409EB040B23441C9C08
:1031E0004FEA744585EAF44585EA9425159C4FEA33
:1031F000F41686EAB44686EAD4042E19199D239C57
:103200002C4434444FEABB1585EAFB2585EA7B66EE
:103210000E94049D771988EA0E0505EA0B0585EAE8
:103220000E053D442C44C94D67194FEAB30484EAA6
:10323000733484EAB35643EA010503EA010405EA5C
:103240000C052C433519D4190094069C07EB050A8C
:103250004FEA744282EAF44282EA9424129A8BEA98
:1032600008064FEAF21585EAB24585EAD202A518AA
:103270001F9C159A22442A44009C0C924FEAB415D4
:1032800085EAF42585EA746404EB0E07009C4AEA9B
:103290000305264086EA0806BC192244AC4C0D40C2
:1032A00017194FEABA0484EA7A3484EABA560AEA69
:1032B00003020E9C2A434FEA744585EAF44585EAE9
:1032C00094251B9C32444FEAF41686EAB44686EAFB
:1032D000D4042E19DDE911452C440CEB070E3519E9
:1032E0004FEABE1686EAFE2686EA7E6404EB0806EE
:1032F000009C229584EA0B0404EA0E0484EA0B0481
:1033000034442C44934D3A442C444FEAB20585EAA8
:10331000723585EAB25742EA0A0602EA0A051E40F9
:10332000354301EB04093D440C992C444FEA7145A7
:1033300085EAF14585EA912517994FEAF11686EA63
:10334000B14686EAD1016E18DDE91A512944751893
:103350004FEAB91181EAF9211E9581EA7966009F49
:103360005E448EEA070101EA0901794031442944AB
:10337000794D44EA020601EB050C4FEAB40181EAFB
:10338000743104EA020506EA0A0681EAB4513543BB
:103390002944229D03EB0C064FEA754383EAF5436B
:1033A00083EA95251D9B05964FEAF31686EAB346F8
:1033B00086EAD303EE18DDE916352B443344059E27
:1033C00089EA0E074FEAB61585EAF62585EA76669C
:1033D000009D10933544059E6144374087EA0E07EF
:1033E0003D441D445D4B01EA040CEF184FEAB10364
:1033F00083EA713383EAB15341EA040515404CEA8C
:10340000050C03EB0C0507EB05081E9DBA444FEABB
:10341000754383EAF54383EA9525079B4FEAF31644
:1034200086EAB34686EAD303EE18DDE91C352B4461
:10343000F5184FEABA1686EAFA2686EA7A6606EBA5
:103440000E0C1995059E86EA090606EA0A0686EA22
:1034500009060CEB06032B44414D48EA010C1D44C0
:103460004FEAB80383EA783383EAB85708EA0103DE
:103470000CEA040C43EA0C033B4402EB050BEA188C
:10348000109B4FEA734585EAF34585EA93250F9B28
:103490004FEAF31686EAB34686EAD303EE18DDE96F
:1034A00006352B44F5184FEABB1383EAFB2383EA66
:1034B0007B63059E03EB09078AEA060303EA0B0315
:1034C00073403B4401952B44264D03EB050C4FEA1A
:1034D000B20383EA723383EAB25642EA080302EA8D
:1034E00008050B401D43731904EB0C0E199D0CEBE2
:1034F00003044FEA754383EAF54383EA95250D9B60
:103500004FEAF31686EAB34686EAD303EE18DDE9FE
:103510000E352B44F5184FEABE1383EAFE23059EB1
:1035200083EA7E6303EB060C8BEA0A0606EA0E06C4
:1035300086EA0A060CEB06031B952B440A4D2B4426
:1035400014E00000852C7292A1E8BFA24B661AA875
:10355000708B4BC2A3516CC719E892D1240699D63F
:1035600085350EF470A06A1016C1A4194FEAB4058F
:1035700085EA743585EAB45644EA020704EA02058E
:1035800007EA08073D4301EB030935445919019D3A
:103590008EEA0B074FEA754383EAF54383EA9525E4
:1035A000239B07EA09074FEAF31686EAB34686EA41
:1035B000D303EE18DDE90C352B44F5184FEAB913A7
:1035C00083EAF92383EA796606EB0A0387EA0B07A5
:1035D0003B442B440595FE4D5F194FEAB10383EA46
:1035E000713383EAB15641EA040501EA0403154048
:1035F0002B4308EB0705009533441B9D07EB030A9B
:103600004FEA754383EAF54383EA95251F9B4FEA0A
:10361000F31686EAB34686EAD303EE18DDE92253B1
:103620002B443344009D0D934FEAB51686EAF526E8
:1036300086EA756505EB0B0C009D89EA0E062E40A7
:1036400086EA0E060CEB06052B44E24D03EB050C57
:103650004FEABA0383EA7A3383EABA570AEA0105E2
:103660004AEA0106264035437B1902EB0C06059D0C
:1036700002964FEA754282EAF54282EA9525119A4E
:1036800063444FEAF21686EAB24686EAD202AE18E0
:10369000DDE91E522A443244029E0B924FEAB615CF
:1036A00085EAF62585EA766505EB0E07009D85EA35
:1036B0000905354085EA09053D442A44C64D571998
:1036C0004FEAB30282EA733282EAB35643EA0A054A
:1036D00003EA0A020D402A43324407EB020C0D9A1A
:1036E00004EB070B4FEA724484EAF24484EA922422
:1036F0001A9A009E4FEAF21585EAB24585EAD2028F
:10370000A518DDE910242244AC184FEABB1282EA66
:10371000FB2282EA7B6202EB0905029A2194724045
:1037200002EA0B0272402A442244AC4C4CEA0305E4
:1037300017194FEABC0282EA7C3282EABC520CEAD8
:10374000030405EA0A0501EB07082C430B99224400
:103750004FEA714484EAF14484EA912416993A4488
:103760004FEAF11585EAB14585EAD1016518DDE931
:10377000191421446C184FEAB81181EAF82181EA42
:10378000786500991D942944029D02EA0C078BEA92
:10379000050606EA08066E4031442144904C01EBD0
:1037A000040942EA0C041C402743219C0AEB090E41
:1037B0004FEA744585EAF44585EA94251C9C4FEA56
:1037C000B2014FEAF41686EAB44686EAD4042E190A
:1037D000169D019C81EA72312C444FEABE15344497
:1037E00085EAFE2585EA7E6681EAB251029D39446A
:1037F000771988EA0B0505EA0E0585EA0B050F9493
:103800003D442C44774D494467194FEAB10484EA9A
:10381000713484EAB15641EA020501EA020405EA7C
:103820000C052C43344403EB070907EB040A1D9CE9
:103830008EEA08064FEA744383EAF44383EA942449
:10384000069B06EA09064FEAF31585EAB34585EAC1
:10385000D303E518DDE91B432344EC184FEAB91301
:1038600083EAF92383EA79635B4486EA08063344F2
:10387000234418945C4C0AEA01051F194FEABA0365
:1038800083EA7A3383EABA544AEA010313401D43B8
:1038900063190F9C0CEB07064FEA744585EAF44563
:1038A00085EA94250E9C07964FEAF41686EAB446FC
:1038B00086EAD4042E19DDE905452C443444079EDC
:1038C0003B444FEAB61585EAF62585EA766505EBB1
:1038D000080789EA0E05354085EA0E053D44009447
:1038E0002C44424D43EA0A072C444FEAB30585EACB
:1038F000733503EA0A060F4085EAB35C3E4366442B
:1039000002EB040BA219189C4FEA744585EAF445B2
:1039100085EA94250C9C4FEAF41686EAB44686EABA
:10392000D4042E19DDE90D452C4406EB0408079E4E
:103930004FEABB1484EAFB2486EA090684EA7B6426
:1039400006EA0B06744486EA09063444284D4444CA
:1039500004EB050C4FEAB20484EA723484EAB257ED
:1039600042EA030402EA030604EA0A042643BC19F5
:1039700001EB0C0EA444009C079E4FEA744181EABF
:10398000F44181EA942422994FEAF11585EAB14580
:1039900085EAD1016518DDE90B14214429444FEA79
:1039A000BE1484EAFE248BEA060584EA7E6405EAF6
:1039B0000E054C44754003912C4421440D4C01EB01
:1039C00004094FEABC0181EA7C3181EABC5113E071
:1039D000086C371E4C774827B5BCB034B30C1C3983
:1039E0004AAAD84E4FCA9C5BF36F2E68EE828F7442
:1039F0006F63A5781478C8844CEA02070CEA0205C4
:103A00001F403D4329440AEB09054FEA784484EA04
:103A1000F844029584EA98251E9C8EEA0B074FEA2B
:103A2000F41686EAB44686EAD4042E19DDE9214567
:103A30002C44029D34444FEAB51686EAF52686EA00
:103A40007565079E49442E44029D04942F4087EAE1
:103A50000B07F5192C44F34D41EA0C0A2C444FEAAC
:103A6000B10585EA713501EA0C090AEA020A85EA1C
:103A7000B15849EA0A0908EB090603EB0409A3193E
:103A8000039C4FEA744585EAF44585EA9425109C29
:103A90004FEAF41686EAB44686EAD4042E19DDE924
:103AA0001D452C4434444FEAB91686EAF92686EAC5
:103AB000796606EB0B07029E039486EA0E0606EA79
:103AC000090686EA0E06BD192C44D74D43EA0106C5
:103AD00067194FEAB30484EA733484EAB35503EAFE
:103AE000010406EA0C0634432C4402EB070A3A1997
:103AF000049C02EA03084FEA744585EAF44585EA26
:103B00009425199C4FEAF41686EAB44686EAD40452
:103B10002E19DDE90F542C444FEABA15344485EAD6
:103B2000FA2585EA7A6606EB0E07029E049489EA76
:103B3000060505EA0A0575403D442C44BB4D66194F
:103B40004FEAB20484EA723484EAB25542EA0304CA
:103B50000C4048EA040805EB08040CEB060B06EBE6
:103B6000040C039C4FEA744585EAF44585EA9425E4
:103B7000019C4FEAF41686EAB44686EAD4042E196C
:103B8000DDE918452C4434444FEABB1686EAFB268F
:103B9000029D86EA7B6677198AEA090606EA0B0621
:103BA00086EA0906BD192C44A14D67194FEABC04E9
:103BB00084EA7C3484EABC564CEA02050CEA02042E
:103BC0001D402C43344401EB070E2744049C4FEA6C
:103BD000744181EAF44181EA94241B9947EA0C0676
:103BE0004FEAF11585EAB14585EAD1016518DDE9AD
:103BF0000014214429444FEABE1484EAFE248BEACF
:103C00000A0584EA7E6405EA0E054C4485EA0A0545
:103C10002C442144874C164001EB04084FEAB701BD
:103C200081EA773181EAB75907EA0C013143494407
:103C3000139C414421448160209943443944C1602C
:103C400014996144016124991144416125991944F1
:103C5000816128997144C1612999594401622A9965
:103C6000514441622BB0BDE8F08F2DE9F04105468B
:103C70000F46141E31DD286800F03F062044C6F1CF
:103C8000400188462860A04202D26868401C6860F3
:103C9000BEB18C4215DBA81928304246394621F0C6
:103CA00000F905F128012846FEF7DCF94744A4EBAA
:103CB0000804002605E039462846FEF7D3F94037C8
:103CC000403C402CF7DA002C07DDA8192246394683
:103CD000BDE8F041283021F0E4B8BDE8F0817CB5C2
:103CE0000D46044601686268480F40EAC200020EB1
:103CF0008DF80020020C8DF80120020A8DF80220B8
:103D0000C9008DF80300080E8DF80400080C8DF82A
:103D10000500080A8DF806008DF80710206800F0ED
:103D20003F00382802D2C0F1380201E0C0F1780229
:103D300041492046FFF799FF082269462046FFF7D0
:103D400094FFA068000E2870A068000C6870A0683E
:103D5000000AA870A068E870E068000E2871E068AA
:103D6000000C6871E068000AA871E068E8712069D9
:103D7000000E28722069000C68722069000AA8727F
:103D80002069E8726069000E28736069000C68732E
:103D90006069000AA8736069E873A069000E28745E
:103DA000A069000C6874A069000AA874A069E8748E
:103DB000E069000E2875E069000C6875E069000A8A
:103DC000A875E069E875206A000E2876206A000C64
:103DD0006876206A000AA876206AE876606A000E93
:103DE0002877606A000C6877606A000AA877606AC2
:103DF000E8777CBD30B5BBB003460D461446684637
:103E0000FEF71CF92A4619466846FFF72EFF2146A1
:103E10006846FFF764FFE821684621F0DBF83BB015
:103E200030BD00000802C78CFAFFBE90EB6C50A4B6
:103E3000F7A3F9BEF27871C6EE9E020800214FF09A
:103E4000006005F08CBF10B507F042FD06F024F8C5
:103E5000BDE8104007F047BD10B5FFF7EFFF0E4873
:103E60004FF4FA710068B0FBF1F0B0F1807F0CD232
:103E700020F07F414FF0E020491E4161074AF021C8
:103E80001170002181610721016102F06BFABDE828
:103E9000104003A008F048B8C800002023ED00E05F
:103EA0007561727432000000AFF3008038B50121F3
:103EB000052002F075FFE020ADF8000003208DF82A
:103EC00002001820154D8DF803006946284604F0BD
:103ED0009DF813A21449154800F010F901218DF83E
:103EE0000210134C10218DF803102560A1800121D0
:103EF000042002F055FFA188ADF80010206804F0FE
:103F0000FDF96946206804F081F80748234604A2B9
:103F100008A170300BF09CF838BD0000000801408B
:103F20007370693100000000C8200020003001409B
:103F300090000020737069313000000030B585B00A
:103F4000056C0C46684603F02EFA607800220828BB
:103F500002D8ADF8042005E010280ED84FF4006018
:103F6000ADF804007A4960680968B0EB510F07D3D7
:103F7000784B994204D8002021E0082005B030BDDC
:103F8000B0EB910F01D3082019E0B0EBD10F01D3B2
:103F9000102014E0B0EB111F01D318200FE0B0EB9C
:103FA000511F01D320200AE0B0EB911F01D328203C
:103FB00005E0B0EBD11F01D3302000E03820ADF890
:103FC0000C002078800703D50220ADF8060001E040
:103FD000ADF806202078C00703D00120ADF8080016
:103FE00001E0ADF808202078400702D5ADF80E209A
:103FF00002E08020ADF80E00ADF800204FF4827092
:10400000ADF802004FF40070ADF80A00E86E03F05E
:1040100051F86946E86E03F07EF80121E86E03F07E
:10402000D7F90021E86E03F04AFB0020A6E72DE94E
:10403000F0470F46016C00F14405D0F83C80386928
:10404000D1F86CA0BC68C00705D0B8F80410D8F847
:10405000000004F0A7F96878082821D8D7E90056AD
:104060001BE04FF0FF090DB115F8019B02215046EE
:1040700003F0A7FB0028F9D04946504603F070FA38
:104080000121504603F09DFB0028F9D0504603F073
:104090007BFAC0B20EB106F8010B641EE1D221E03A
:1040A00010281FD8D7E900561AE04FF0FF090DB1CC
:1040B00035F8029B0221504603F083FB0028F9D01B
:1040C0004946504603F04CFA0121504603F079FB73
:1040D0000028F9D0504603F057FA0EB126F8020B2B
:1040E000641EE2D23869800705D5B8F80410D8F804
:1040F000000004F003F9B868BDE8F08770B50C461D
:10410000054601211646084602F04AFE124885423D
:1041100005D1E0660121801402F042FE0EE00F4856
:10412000854203D10121E066001405E00C48854278
:104130000BD1E0660121C01302F050FE314620464B
:10414000BDE87040074A0AF071BF062070BD00004C
:10415000C800002001512502003001400038004015
:10416000003C004098000020F8B50546C46BC08AAA
:10417000C10635D4C0054FF000070AD580220021C2
:10418000606807F0E6FB6068C0F880706068C0F89F
:104190008470E88A00051BD5A068006850B9002625
:1041A0002F23F34AF3A1FDA007F078FEFCF7ACF84B
:1041B000002EFDD0A0688760A068476010200090A6
:1041C000A06800F144020C305023FCA108F052FB1F
:1041D0000121206804F0ADFCE88A40F01000E8827C
:1041E0000020F8BD00207047002070472DE9F047FF
:1041F000C56BC08A17461E4614464FF00008C0051E
:1042000025D5C14636B309F073FD6A68D2E920139B
:10421000994210D0515C04F8011B6A68761E52F86E
:10422000801F491C11606A68802901D3C2F8809000
:1042300009F062FDE6E76FF0030809F05DFD09E0B3
:10424000808804F8010B286801888906F8D4E01BEF
:10425000B042F8D3404607F063FBE01BBDE8F087AF
:104260002DE9F04105000E4617460BD1C04A002447
:104270008E230F32D2A1C9A007F010FEFCF744F83C
:10428000002CFDD00021284605F05AFAEE606F6040
:104290002846BDE8F041012105F052BA2DE9F0476A
:1042A000C56BC08A90461E464FF000091446410572
:1042B0000CD5AF4A0025A9232432C7A1B7A007F027
:1042C000EDFDFCF721F8002DFDD04BE0010529D5CF
:1042D000A8684FF0FF310C3008F0D6FB070013D070
:1042E00000203C60C7E9016009F002FD0646A868AD
:1042F0008068F860A868806800B18760A8688760F7
:10430000A868416819B109E06FF004092AE0476024
:10431000A868D7E900120068FFF7A2FF304609F04D
:10432000EBFC1FE040061BD50D21DEB120780A28EA
:1043300004D1286802881206FCD58180286802888A
:104340001206FCD514F8012B8280A6F10106ECE7D9
:10435000286801880906FCD514F8011B8180761EA7
:10436000002EF5D1484607F0DBFAA4EB080075E70C
:1043700070B504000E460CD17D4A00254FF48273BF
:10438000343296A185A007F089FDFBF7BDFF002D13
:10439000FDD0E06B012E08D0022E0ED1E18A41F053
:1043A0002001E1820068002105E0E18A21F020017E
:1043B000E1820068012104F0BCFB002070BD2DE902
:1043C000F0410400884616461F460CD1684A002575
:1043D00040F21F13463285A170A007F05FFDFBF786
:1043E00093FF002DFDD016F4C06F0CD0604A00255D
:1043F0004FF49273463278A168A007F04FFDFBF7A7
:1044000083FF002DFDD000202075E06120627C48F4
:1044100060627C48A0627C48E0627C4820637C4803
:1044200060637C48C4E90E07B0B240F00302414625
:104430002046BDE8F04105F077BD2DE9F041C46BA1
:10444000054640F225584146206804F064FF0028E4
:104450004DD0E88A4FF00006C00530D4444A00270A
:104460004FF49F735C326CA14CA007F017FDFBF773
:104470004BFF002FFDD022E009F03AFC02462068F5
:1044800081886068D0F88430C154616851F8840F25
:10449000401C08606168802801D3C1F884606168AD
:1044A000D1E92003834207D1401CC1F88000616834
:1044B000802801D3C1F88060104609F01DFC2068F7
:1044C00000888006D8D44146206804F094FFEA6949
:1044D0006AB1616801F18001D1E90001884203D924
:1044E000C0F18000014400E0091A2846904740F2DC
:1044F00026652946206804F00EFF002805D02946CD
:104500002068BDE8F04104F076BFBDE8F0812DE9F8
:10451000F0410746C46BC08A00050CD4144A00253C
:104520004FF4BE736D3246A11CA007F0B7FCFBF739
:10453000EBFE002DFDD0A068456865B90C4A002649
:104540004FF4C0736D3248A114A007F0A7FCFBF72D
:10455000DBFE002EFDD03A6A12B13846296890473A
:1045600009F0C6FBA2680146A8685060A26887E00F
:104570002E9F0208756172742D3E646D615F7478C0
:104580002D3E646D615F6368616E6E656C20213DD8
:104590002052545F4E554C4C0000000028257329D2
:1045A00020617373657274206661696C6564206153
:1045B000742025733A2564200A000000646E000010
:1045C000646D615F6368616E6E656C20213D205291
:1045D000545F4E554C4C000030000000646576205E
:1045E000213D2052545F4E554C4C00006465766965
:1045F000636520213D2052545F4E554C4C00000015
:1046000069410008E5410008E9410008ED41000862
:104610009D420008714300086465766963652D3E1C
:10462000666C616720262052545F444556494345D5
:104630005F464C41475F494E545F525800000000AE
:104640006465766963652D3E666C6167202620523D
:10465000545F4445564943455F464C41475F444D8E
:10466000415F545800000000646174615F6E6F64C4
:104670006520213D2052545F4E554C4C00000000F7
:1046800008B900209060084609F036FB284608F07B
:1046900064FAA068416821B106C90068BDE8F0412C
:1046A000DEE50068BDE8F041002105F049B80000F2
:1046B00010B501218C03204602F0AEFB2046BDE878
:1046C0001040002102F0A8BB2DE9F04F044600681D
:1046D00085B0012804D018B19521FEA0FBF706FE95
:1046E000606830B1B0F5000F03D09621F9A0FBF758
:1046F000FDFDA06830B1B0F5800F03D09721F5A083
:10470000FBF7F4FDE068C0B1B0F5003F15D0B0F59F
:10471000802F12D0B0F5C02F0FD0B0F5002F0CD0E5
:10472000B0F5202F09D0B0F5402F06D0B0F5602F9E
:1047300003D09821E7A0FBF7D9FD20694FF480371B
:1047400028B1B84203D09921E2A0FBF7CFFD606900
:104750004FF4804528B1A84203D09A21DDA0FBF791
:10476000C5FDA06930B1B0F5005F03D09B21D9A091
:10477000FBF7BCFDE069B0F5805F04D018B19C2167
:10478000D4A0FBF7B3FD206AB0F5006F04D018B1D8
:104790009D21D0A0FBF7AAFD606AB0F5806F04D020
:1047A00018B19E21CBA0FBF7A1FDA06A4FF40076C3
:1047B00028B1B04203D09F21C6A0FBF797FDE06A65
:1047C000802804D018B1A021C2A0FBF78FFD206B78
:1047D00048B1202807D0402805D0602803D0A12167
:1047E000BCA0FBF783FD606B102804D018B1A22198
:1047F000B8A0FBF77BFDA06BB0F1004F04D018B15F
:10480000A321B4A0FBF772FDE06BB04207D0B0F576
:10481000407F04D018B1A421AEA0FBF767FD206C47
:10482000402807D0802805D0C02803D0A521A9A002
:10483000FBF75CFD606C28B1202803D0A621A5A061
:10484000FBF754FDA06C28B1082803D0A721A1A034
:10485000FBF74CFDE06C012804D018B1A8219DA005
:10486000FBF744FD206DA0F58061043908D00428D1
:1048700006D028B1102803D0A92196A0FBF736FD59
:10488000606DA0F58061023906D0022804D018B10D
:10489000AA2190A0FBF72AFD206EB84203D3AB21DA
:1048A0008CA0FBF723FD606E28B1802803D0AC21DB
:1048B00088A0FBF71BFDA06E48B1102807D0202868
:1048C00005D0302803D0AD2182A0FBF70FFDE06EAC
:1048D000082804D018B1AE217EA0FBF707FD206F99
:1048E000042804D018B1AF217AA0FBF7FFFC606F59
:1048F000022804D018B1B02176A0FBF7F7FCA06F16
:10490000B84204D018B1B12172A0FBF7EFFCE06F00
:10491000B84203D3B2216FA0FBF7E8FCD4F88000C3
:1049200030B1B0F1806F03D0B4216AA0FBF7DEFC98
:10493000D4F884004FF00078404504D018B1B52178
:1049400064A0FBF7D3FCD4F8880030B1B0F1807FCD
:1049500003D0B6215FA0FBF7C9FCD4F88C004FF45C
:104960000019484504D018B1B7215AA0FBF7BEFC86
:10497000D4F890004FF4004A4FF4404BA0B1A84245
:1049800012D0504510D058450ED0B8420CD0B0F5DA
:10499000A03F09D0B0F5C03F06D0B0F5E03F03D04E
:1049A000B8214CA0FBF7A2FCD4F89400802804D0D6
:1049B00018B1B92147A0FBF799FCD4F8980040281A
:1049C00004D018B1BA2143A0FBF790FCD4F89C00A6
:1049D00048B1082807D0102805D0182803D0BB21DB
:1049E0003CA0FBF783FCD4F8A000042804D018B145
:1049F000BC2138A0FBF77AFCD4F8A400404504D0D1
:104A000018B1BD2133A0FBF771FCD4F8A800B8425F
:104A100004D018B1BE212FA0FBF768FCD4F8AC007D
:104A2000B0F5003F23D0B0F5802F20D0B0F5002F97
:104A30001DD0B0F5801F1AD0484518D0B0F5800FB2
:104A400015D0B0F1817F12D0B0F1827F0FD0B0F1DC
:104A5000847F0CD0B0F1887F09D0B0F1907F06D070
:104A6000B0F1A07F03D0BF211AA0FBF73FFCD4F820
:104A7000B000B0F5807F23D0B04221D0B0F5806F78
:104A80001ED0B0F5006F1BD0B0F5805F18D0B0F528
:104A9000005F15D0B0F1012F12D0134988420FD01A
:104AA000124988420CD01249884209D011498842E3
:104AB00006D01149884203D0C02106A0FBF716FC9E
:104AC000D4F8B4001F2803D9C12102A0FBF70EFCC3
:104AD00014E00000647269766572735C73746D3300
:104AE000325F6574682E630000020001000400015B
:104AF000000800010010000100200001D4F8B800F7
:104B000060B1A8420AD0504508D0584506D00228C6
:104B100004D0C221AFF24400FBF7E8FBFB4E306942
:104B200020F01C05684602F0C2F8F9490198F94ADC
:104B30000144914202D245F0080506E0F6490844D6
:104B4000F649884201D245F00C0535613168F448D8
:104B50000140D4E901021043D4E903231A4310436E
:104B600062691043A2691043E2691043226A10434C
:104B7000626A1043A26A1043E26A1043226B104338
:104B8000626B104308433060D4E90E010843D4E956
:104B9000101211430843A16C0843E16C0843216DD6
:104BA0000843616D08437060A06DB060E06DF06017
:104BB000B0694FF641710840D4E919121143236ED0
:104BC000E26E42EA03421143226F1143626F1143C6
:104BD0000143B161D4E91E010843F061D148816904
:104BE000D14A1140D4E920231A43D4E922352B437A
:104BF0001A43D4F890301A43D4F894301A43D4F8B6
:104C000098301A43D4F89C301A43D4F8A0301A4391
:104C10000A438261D4E929121143D4E92B231A43B0
:104C20001143D4F8B42041EA8201D4F8B8201143EA
:104C300041F40001016005B00120BDE8F08F0021C2
:104C4000016041608160C160016141618161C16158
:104C5000016241628162C1620163416340228163FA
:104C6000C0E90F122022C0E91121C164016541652C
:104C700081658022C165C0E918128166C16601673D
:104C80004167D2048167C0E91F1252105310C0E976
:104C900021231311C0E92331C0F89410C0F89810F3
:104CA000C0F89C10C0E928121212C0E92A12521250
:104CB000C0E92C21C0F8B810704710B5994C58B114
:104CC000012805D040F2B371AFF2F810FBF70EFBEC
:104CD000A06940F0020002E0A06920F00200A0619B
:104CE00010BD10B58F4C58B1012805D040F29C7111
:104CF000AFF22020FBF7FAFAA06940F4005002E07E
:104D0000A06920F40050A06110BD10B57F4C58B1CF
:104D1000012805D040F21731AFF24820FBF7E6FA40
:104D2000206840F0040002E0206820F004002060C9
:104D300010BD7C48816941F480118161704710B5D4
:104D4000724C58B1012805D04FF44071AFF27C206D
:104D5000FBF7CCFA206840F0080002E0206820F061
:104D60000800206010BD10B50120FFF7E8FFFFF735
:104D7000E0FF0120FFF7C9FF0120FFF7B2FFBDE808
:104D80001040012099E730B5684B00221C68246868
:104D9000002C06DA002030BD1D68845CAD68AC5480
:104DA000521C8A42F8D31868C1F30C015D4A416075
:104DB000016841F0304101605169490703D5042180
:104DC0005161002151600168CC0201D5C06808E042
:104DD000890201D5106904E01168C1F38401084417
:104DE00010301860012030BD30B5504C0021034612
:104DF000626808461268002A01DA002030BD1504F6
:104E00000ED4D5050CD595050AD5C2F30D40001F6B
:104E100004E062689268525C5A54491C8142F8D39B
:104E20006168404B4FF000420A605A69120603D590
:104E300080225A6100229A604A68550401D5C968E7
:104E400008E0120401D5D96804E01A68C2F38402AC
:104E500011441031616030BD0068C0F30D407047EF
:104E6000324900204A68116811F0802F05D1CB0526
:104E700003D5890501D51046EEE770472B4A4FF060
:104E800000415068016041684B0401D5C06809E0E9
:104E90000B04244901D5C86804E00968C1F3840102
:104EA000084410305060704770B5002405460E4627
:104EB0001F2805D94FF41F71AFF2E830FBF716FA3F
:104EC0001F2E05D940F27D21AFF2F830FBF70EFA24
:104ED0000E4A106900F01C014FF6FF7000EAC52071
:104EE00008434FF4F86101EA8611014321F0020002
:104EF00040F0010010610E491069641CC00701D028
:104F00008C42F9D38C4215D1002070BD0080024044
:104F100000D3CEFEC0E1E40040F1E9FD40787D0120
:104F20000F8120FF00900240233FDEF8A000002008
:104F3000FFFF0400506980B2E7E72DE9F04100244B
:104F400005460E4617461F2805D940F2AB21AFF2A1
:104F50007C40FBF7CBF91F2E05D94FF42B71AFF234
:104F60008C40FBF7C3F9FE4908694F6100F01C0251
:104F70004FF6FF7000EAC52010434FF4F86202EAD2
:104F80008612024342F003000861F64A0869641C75
:104F9000C00701D09442F9D3944202D10020BDE869
:104FA000F0810120FBE770B505460C461F2805D9A6
:104FB00040F2DA21AFF2E440FBF798F93CB1012C62
:104FC00005D040F2DB21AFF2F440FBF78FF900216E
:104FD0002846FFF769FF14B140F4804201E020F455
:104FE000804200212846FFF7A8FF00288DD001202D
:104FF0008BE7DB4900208969C90700D00120704791
:10500000D748816941F001018161704710B5D44CE6
:1050100058B1012805D040F24D31AFF24850FBF7AE
:1050200065F9A06940F0010002E0A06920F00100EC
:10503000A06110BD70B500250446B0F5007F0DD00D
:10504000402C0BD0202C09D0102C07D0082C05D0D8
:105050004FF45B71AFF28450FBF748F9C048806BA6
:10506000204200D0012528464FE770B500250446B0
:10507000B0F5007F0DD0402C0BD0202C09D0102C87
:1050800007D0082C05D040F28731AFF2B850FBF7BB
:105090002DF9B348806B204200D00125284634E723
:1050A00070B504460D4630F4027000D12CB940F2C0
:1050B000A131AFF2E050FBF719F9A94E55B1012D1E
:1050C00005D040F2A231AFF2F450FBF70FF9F06BCC
:1050D000A04301E0F06B2043F06316E770B50400D5
:1050E0000D460BD0082C09D0102C07D0182C05D059
:1050F00040F2BF31AFF22460FBF7F8F89848A98876
:10510000204401642978D5F8012041EA0221416454
:10511000FBE670B505000C460BD0082D09D0102D0C
:1051200007D0182D05D040F2DB31AFF25860FBF705
:10513000DDF88B482918086C020A62712071486CEE
:10514000010EE170010CA170010A61702070DCE6B3
:1051500070B504460D46082809D0102C07D0182C2D
:1051600005D040F2FB31AFF29460FBF7BFF87C480A
:1051700004445DB1012D05D04FF47F71AFF2AC60F6
:10518000FBF7B4F8206C40F0004002E0206C20F007
:1051900000402064B9E670B504460D46082809D0E1
:1051A000102C07D0182C05D040F21C41AFF2DC6067
:1051B000FBF79CF86A4804443DB1082D09D040F241
:1051C0001D41AFF2F060FBF791F8206C40F0804099
:1051D00002E0206C20F08040206496E670B5054621
:1051E0000C46082809D0102D07D0182D05D040F204
:1051F0004141AFF22070FBF779F8B4F1005F14D0B1
:10520000B4F1805F11D0B4F1006F0ED0B4F1806FB3
:105210000BD0B4F1007F08D0B4F1807F05D040F20C
:105220004241AFF25070FBF761F84D482844016CE1
:1052300021F07C510164016C2143016465E6F0B505
:10524000494C00234FF48017561E206011E000EBFC
:105250000314C3EB431505EB831501EB051527601C
:10526000A560B34203D204F11005E56000E0E06000
:105270005B1C9342EBD33D490861F0BDF0B53A4D5C
:1052800000245F1E4FF4001E286010E0C4EB44169B
:1052900006EB841600EB041501EB061C02EB061668
:1052A000C5E902C6BC4201D1C5F800E0641C9C42BD
:1052B000ECD32E490861F0BD70B5002506460C46BA
:1052C000B1F1004F45D0B4F1804F42D0B4F1005F4E
:1052D0003FD0B4F1805F3CD0B4F1006F39D0B4F16D
:1052E000806F36D0B4F1007F33D0B4F5001F30D0DA
:1052F000B4F5801F2DD0B4F5003F2AD0B4F5803F1F
:1053000027D0B4F5004F24D0B4F5804F21D0B4F5A8
:10531000005F1ED0B4F5805F1BD0B4F5006F18D0CD
:10532000B4F5806F15D0B4F5007F12D0B4F5807F4E
:105330000FD0802C0DD0782C0BD0042C09D0022C4F
:1053400007D0012C05D040F2C141AFF67800FAF742
:10535000CDFF3068204200D001252846D5E5000069
:1053600000800240FFFF0400A000002000900240E7
:105370000068C0F3C3007047016841F0004101605C
:10538000704710B5044659B1012905D040F2EE41ED
:10539000AFF6C000FAF7AAFF206840F0804002E0B4
:1053A000206820F08040206010BD70B505460C4696
:1053B000B1F1804F08D0B4F1005F05D04FF4A16186
:1053C000AFF6F000FAF792FF2868204328609CE5CA
:1053D00070B505460C000ED0B4F5800F0BD0B4F5B7
:1053E000000F08D0B4F5400F05D040F21C51AFF6C5
:1053F0001C10FAF77BFF28682043286085E510B56C
:10540000044659B1012905D040F22C51AFF63C10A9
:10541000FAF76CFF206820F0006002E0206840F09E
:105420000060206010BD10B5044659B1012905D0B7
:1054300040F24451AFF66410FAF758FF206840F488
:10544000001002E0206820F40010206010BD10B5AC
:10545000044659B1012905D040F25C51AFF68C10D9
:10546000FAF744FF206840F4801002E0206820F43E
:105470008010206010BD10B5044659B1012905D037
:1054800040F27451AFF6B410FAF730FF206820F004
:10549000806002E0206840F08060206010BD10B5A0
:1054A000044659B1012905D040F28C51AFF6DC1009
:1054B000FAF71CFF206840F0007002E0206820F03E
:1054C0000070206010BD2DE9F0414FF400570446F4
:1054D0000D461646B94205D340F2A451AFF60C2052
:1054E000FAF704FFBE4205D340F2A551AFF61C20E7
:1054F000FAF7FCFE606845EA0641084360604EE545
:10550000F0B5F94C00234FF0004C44F2F057561E12
:10551000606013E000EB0314C3EB431505EB831548
:1055200001EB0515C4F800C0C4E90175B34203D20C
:1055300004F11005E56000E0E0605B1C9342E9D3F4
:10554000EA49C860F0BD2DE9F047E74D00244FF06F
:1055500000484FF4BE6A5F1E48F2F059686012E0DE
:10556000C4EB441606EB841600EB041501EB061C95
:1055700002EB0616C5E902C6C5E9008ABC4201D1A4
:10558000C5F80490641C9C42EAD3D849C860BDE8C1
:10559000F08770B5002506460C46B1F1004F30D0BB
:1055A000B4F1804F2DD0B4F5004F2AD0B4F5804F20
:1055B00027D0B4F5005F24D0B4F5805F21D0B4F5D6
:1055C000006F1ED0B4F5806F1BD0B4F5007F18D0EB
:1055D000B4F5807F15D0802C13D0402C11D0202C16
:1055E0000FD0102C0DD0082C0BD0042C09D0022C7D
:1055F00007D0012C05D04FF4C461AFF62830FAF77C
:1056000075FE3068204200D0012528467DE40168FF
:1056100041F000410160704710B5044659B10129BD
:1056200005D040F24C61AFF65430FAF75FFE606887
:1056300020F0004002E0606840F00040606010BD73
:1056400010B5044659B1012905D040F26461AFF6A6
:105650007C30FAF74BFE606840F4004002E060687E
:1056600020F40040606010BD10B5044659B1012916
:1056700005D040F27C61AFF6A430FAF737FE6068DF
:1056800040F4804002E0606820F48040606010BD1B
:1056900010B5044659B1012905D040F29661AFF624
:1056A000CC30FAF723FE6068C0F30C4010BD4068B0
:1056B000C0F30C0010BD8D48016841F0010101608C
:1056C00070478A4900200968C90700D00120704747
:1056D00070B500250446B0F1005F30D0B4F1805FB2
:1056E0002DD0B4F1006F2AD0B4F5803F27D0B4F5A7
:1056F000004F24D0B4F5804F21D0B4F5005F1ED008
:10570000B4F5806F1BD0B4F5007F18D0B4F5807F5E
:1057100015D0802C13D0402C11D0202C0FD0102C61
:105720000DD0082C0BD0042C09D0022C07D0012C52
:1057300005D040F2E361AFF66440FAF7D7FD6B485D
:105740004069204200D00125284651E410B50446A6
:105750006748044200D12CB940F20771AFF68C4083
:10576000FAF7C4FD6148446110BD70B500250446D8
:10577000B0F1005F30D0B4F1805F2DD0B4F1006F94
:105780002AD0B4F5803F27D0B4F5004F24D0B4F52B
:10579000804F21D0B4F5005F1ED0B4F5806F1BD0D0
:1057A000B4F5007F18D0B4F5807F15D0802C13D0CD
:1057B000402C11D0202C0FD0102C0DD0082C0BD049
:1057C000042C09D0022C07D0012C05D040F22971FD
:1057D000AFF60050FAF78AFD44484069204200D0F5
:1057E0000125284604E410B504464148044200D18E
:1057F0002CB940F24D71AFF62450FAF777FD3B48D3
:10580000446110BD3948406900F0010070473748D5
:10581000406900F040007047344900208969C9029E
:1058200000D50120704770B5044631480D4604424A
:1058300000D12CB940F2DC71AFF66850FAF756FD92
:105840002A4E55B1012D05D040F2DD71AFF67C50E6
:10585000FAF74CFDF069204301E0F069A043F061E4
:105860001DE470B500250446B0F1805F08D0B4F5A2
:10587000803F05D040F2F771AFF6A850FAF736FD39
:105880001A48006A204200D00125284607E417483C
:10589000006AC0F34A4070471448006A80B27047FB
:1058A0001248806C70471148C06C70470F48006DFB
:1058B00070470E48406D70470C49002048607047A3
:1058C0000A490020886070470A48C16A41F00041D7
:1058D000C1627047074A002150F821309362491C89
:1058E0000829F9D370470000A00000200090024072
:1058F0000018FEFF0080024010B5FD4C58B1012891
:1059000005D040F67D01AFF63460FAF7EFFCE06AAF
:1059100040F4007002E0E06A20F40070E06210BD24
:1059200070B500250446402807D0202C05D040F64D
:105930009801AFF66060FAF7D9FCED48C06A2042E2
:1059400000D00125284625E410B5E94C58B10128BE
:1059500005D040F6AE01AFF68460FAF7C7FCE06A06
:1059600040F0040002E0E06A20F00400E06210BDB4
:1059700010B5DF4C58B1012805D040F6C501AFF68F
:10598000AC60FAF7B3FCE06A40F0020002E0E06AC3
:1059900020F00200E06210BD10B5D54C58B10128CE
:1059A00005D040F6DC01AFF6D460FAF79FFCE06A60
:1059B00040F0010002E0E06A20F00100E06210BD6A
:1059C00010B5CB4C60B1012805D040F6F501AFF61B
:1059D000FC60FAF78BFCD4F8000140F0080003E00B
:1059E000D4F8000120F00800C4F8000110BD10B583
:1059F000BF4C60B1012805D040F60C11AFF62C70F9
:105A0000FAF774FCD4F8000140F0040003E0D4F885
:105A1000000120F00400C4F8000110BD10B5B44C22
:105A200060B1012805D040F62311AFF65870FAF79F
:105A30005DFCD4F8000120F0020003E0D4F800017E
:105A400040F00200C4F8000110BDAA48016841F00E
:105A50000101016046E770B504460D4630F40310BD
:105A600002D0A548044200D12CB940F64E11AFF641
:105A70009C70FAF73BFC3DB1012D05D040F64F116B
:105A8000AFF6B070FAF732FC9949E0000AD5D1F8C8
:105A90000C2124F080500DB1824300E00243C1F894
:105AA0000C215BE4D1F810010DB1A04300E02043CC
:105AB000C1F8100152E470B500250446B0F5001F8E
:105AC00013D0B4F5004F10D0B4F5804F0DD08B48F3
:105AD00084420AD0A4F18050403806D0203004D04F
